{
  "contractName": "StakedCFX",
  "abi": [
    {
      "inputs": [],
      "stateMutability": "payable",
      "type": "constructor",
      "payable": true
    },
    {
      "anonymous": false,
      "inputs": [
        {
          "indexed": true,
          "internalType": "address",
          "name": "owner",
          "type": "address"
        },
        {
          "indexed": true,
          "internalType": "address",
          "name": "spender",
          "type": "address"
        },
        {
          "indexed": false,
          "internalType": "uint256",
          "name": "value",
          "type": "uint256"
        }
      ],
      "name": "Approval",
      "type": "event"
    },
    {
      "anonymous": false,
      "inputs": [
        {
          "indexed": true,
          "internalType": "address",
          "name": "from",
          "type": "address"
        },
        {
          "indexed": true,
          "internalType": "address",
          "name": "to",
          "type": "address"
        },
        {
          "indexed": false,
          "internalType": "uint256",
          "name": "value",
          "type": "uint256"
        }
      ],
      "name": "Transfer",
      "type": "event"
    },
    {
      "inputs": [
        {
          "internalType": "address",
          "name": "owner",
          "type": "address"
        },
        {
          "internalType": "address",
          "name": "spender",
          "type": "address"
        }
      ],
      "name": "allowance",
      "outputs": [
        {
          "internalType": "uint256",
          "name": "",
          "type": "uint256"
        }
      ],
      "stateMutability": "view",
      "type": "function",
      "constant": true
    },
    {
      "inputs": [
        {
          "internalType": "address",
          "name": "spender",
          "type": "address"
        },
        {
          "internalType": "uint256",
          "name": "amount",
          "type": "uint256"
        }
      ],
      "name": "approve",
      "outputs": [
        {
          "internalType": "bool",
          "name": "",
          "type": "bool"
        }
      ],
      "stateMutability": "nonpayable",
      "type": "function"
    },
    {
      "inputs": [
        {
          "internalType": "address",
          "name": "account",
          "type": "address"
        }
      ],
      "name": "balanceOf",
      "outputs": [
        {
          "internalType": "uint256",
          "name": "",
          "type": "uint256"
        }
      ],
      "stateMutability": "view",
      "type": "function",
      "constant": true
    },
    {
      "inputs": [],
      "name": "decimals",
      "outputs": [
        {
          "internalType": "uint8",
          "name": "",
          "type": "uint8"
        }
      ],
      "stateMutability": "view",
      "type": "function",
      "constant": true
    },
    {
      "inputs": [
        {
          "internalType": "address",
          "name": "spender",
          "type": "address"
        },
        {
          "internalType": "uint256",
          "name": "subtractedValue",
          "type": "uint256"
        }
      ],
      "name": "decreaseAllowance",
      "outputs": [
        {
          "internalType": "bool",
          "name": "",
          "type": "bool"
        }
      ],
      "stateMutability": "nonpayable",
      "type": "function"
    },
    {
      "inputs": [
        {
          "internalType": "address",
          "name": "spender",
          "type": "address"
        },
        {
          "internalType": "uint256",
          "name": "addedValue",
          "type": "uint256"
        }
      ],
      "name": "increaseAllowance",
      "outputs": [
        {
          "internalType": "bool",
          "name": "",
          "type": "bool"
        }
      ],
      "stateMutability": "nonpayable",
      "type": "function"
    },
    {
      "inputs": [],
      "name": "name",
      "outputs": [
        {
          "internalType": "string",
          "name": "",
          "type": "string"
        }
      ],
      "stateMutability": "view",
      "type": "function",
      "constant": true
    },
    {
      "inputs": [],
      "name": "symbol",
      "outputs": [
        {
          "internalType": "string",
          "name": "",
          "type": "string"
        }
      ],
      "stateMutability": "view",
      "type": "function",
      "constant": true
    },
    {
      "inputs": [],
      "name": "totalSupply",
      "outputs": [
        {
          "internalType": "uint256",
          "name": "",
          "type": "uint256"
        }
      ],
      "stateMutability": "view",
      "type": "function",
      "constant": true
    },
    {
      "inputs": [
        {
          "internalType": "address",
          "name": "recipient",
          "type": "address"
        },
        {
          "internalType": "uint256",
          "name": "amount",
          "type": "uint256"
        }
      ],
      "name": "transfer",
      "outputs": [
        {
          "internalType": "bool",
          "name": "",
          "type": "bool"
        }
      ],
      "stateMutability": "nonpayable",
      "type": "function"
    },
    {
      "inputs": [
        {
          "internalType": "address",
          "name": "sender",
          "type": "address"
        },
        {
          "internalType": "address",
          "name": "recipient",
          "type": "address"
        },
        {
          "internalType": "uint256",
          "name": "amount",
          "type": "uint256"
        }
      ],
      "name": "transferFrom",
      "outputs": [
        {
          "internalType": "bool",
          "name": "",
          "type": "bool"
        }
      ],
      "stateMutability": "nonpayable",
      "type": "function"
    },
    {
      "stateMutability": "payable",
      "type": "receive",
      "payable": true
    },
    {
      "inputs": [],
      "name": "withdraw",
      "outputs": [],
      "stateMutability": "nonpayable",
      "type": "function"
    }
  ],
  "bytecode": "0x608060405260046007556200006a670de0b6b3a7640000620000566303c2670062000042662386f26fc100006007546200024460201b6200108c1790919060201c565b620002cf60201b620011121790919060201c565b6200032160201b6200115c1790919060201c565b600855620000ac670de0b6b3a7640000620000986008546008546200024460201b6200108c1790919060201c565b620002cf60201b620011121790919060201c565b600955730888000000000000000000000000000000000002600a60006101000a81548173ffffffffffffffffffffffffffffffffffffffff021916908373ffffffffffffffffffffffffffffffffffffffff1602179055506040518060400160405280600a81526020017f5374616b656420434658000000000000000000000000000000000000000000008152506040518060400160405280600481526020017f734346580000000000000000000000000000000000000000000000000000000081525081600390805190602001906200018892919062000475565b508060049080519060200190620001a192919062000475565b506012600560006101000a81548160ff021916908360ff1602179055505050670de0b6b3a764000034146200023e576040517f08c379a00000000000000000000000000000000000000000000000000000000081526004018080602001828103825260168152602001807f6d757374206465706c6f7920776974682031204346580000000000000000000081525060200191505060405180910390fd5b6200051b565b600080831415620002595760009050620002c9565b60008284029050828482816200026b57fe5b0414620002c4576040517f08c379a0000000000000000000000000000000000000000000000000000000008152600401808060200182810382526021815260200180620025a26021913960400191505060405180910390fd5b809150505b92915050565b60006200031983836040518060400160405280601a81526020017f536166654d6174683a206469766973696f6e206279207a65726f000000000000815250620003aa60201b60201c565b905092915050565b600080828401905083811015620003a0576040517f08c379a000000000000000000000000000000000000000000000000000000000815260040180806020018281038252601b8152602001807f536166654d6174683a206164646974696f6e206f766572666c6f77000000000081525060200191505060405180910390fd5b8091505092915050565b600080831182906200045a576040517f08c379a00000000000000000000000000000000000000000000000000000000081526004018080602001828103825283818151815260200191508051906020019080838360005b838110156200041e57808201518184015260208101905062000401565b50505050905090810190601f1680156200044c5780820380516001836020036101000a031916815260200191505b509250505060405180910390fd5b5060008385816200046757fe5b049050809150509392505050565b828054600181600116156101000203166002900490600052602060002090601f016020900481019282601f10620004b857805160ff1916838001178555620004e9565b82800160010185558215620004e9579182015b82811115620004e8578251825591602001919060010190620004cb565b5b509050620004f89190620004fc565b5090565b5b8082111562000517576000816000905550600101620004fd565b5090565b612077806200052b6000396000f3fe6080604052600436106100ab5760003560e01c80633ccfd60b116100645780633ccfd60b1461045a57806370a082311461047157806395d89b41146104d6578063a457c2d714610566578063a9059cbb146105d7578063dd62ed3e14610648576101f9565b806306fdde03146101fe578063095ea7b31461028e57806318160ddd146102ff57806323b872dd1461032a578063313ce567146103bb57806339509351146103e9576101f9565b366101f957670de0b6b3a764000034101561012e576040517f08c379a00000000000000000000000000000000000000000000000000000000081526004018080602001828103825260178152602001807f6d696e696d756d206465706f736974203d20312043465800000000000000000081525060200191505060405180910390fd5b6000610139336106cd565b11156101a057600061019261014d336106cd565b600660003373ffffffffffffffffffffffffffffffffffffffff1673ffffffffffffffffffffffffffffffffffffffff16815260200190815260200160002054610715565b905061019e3382610878565b505b43600660003373ffffffffffffffffffffffffffffffffffffffff1673ffffffffffffffffffffffffffffffffffffffff168152602001908152602001600020819055506101ed47610a3f565b6101f73334610878565b005b600080fd5b34801561020a57600080fd5b50610213610acf565b6040518080602001828103825283818151815260200191508051906020019080838360005b83811015610253578082015181840152602081019050610238565b50505050905090810190601f1680156102805780820380516001836020036101000a031916815260200191505b509250505060405180910390f35b34801561029a57600080fd5b506102e7600480360360408110156102b157600080fd5b81019080803573ffffffffffffffffffffffffffffffffffffffff16906020019092919080359060200190929190505050610b71565b60405180821515815260200191505060405180910390f35b34801561030b57600080fd5b50610314610b8f565b6040518082815260200191505060405180910390f35b34801561033657600080fd5b506103a36004803603606081101561034d57600080fd5b81019080803573ffffffffffffffffffffffffffffffffffffffff169060200190929190803573ffffffffffffffffffffffffffffffffffffffff16906020019092919080359060200190929190505050610b99565b60405180821515815260200191505060405180910390f35b3480156103c757600080fd5b506103d0610c72565b604051808260ff16815260200191505060405180910390f35b3480156103f557600080fd5b506104426004803603604081101561040c57600080fd5b81019080803573ffffffffffffffffffffffffffffffffffffffff16906020019092919080359060200190929190505050610c89565b60405180821515815260200191505060405180910390f35b34801561046657600080fd5b5061046f610d3c565b005b34801561047d57600080fd5b506104c06004803603602081101561049457600080fd5b81019080803573ffffffffffffffffffffffffffffffffffffffff1690602001909291905050506106cd565b6040518082815260200191505060405180910390f35b3480156104e257600080fd5b506104eb610e78565b6040518080602001828103825283818151815260200191508051906020019080838360005b8381101561052b578082015181840152602081019050610510565b50505050905090810190601f1680156105585780820380516001836020036101000a031916815260200191505b509250505060405180910390f35b34801561057257600080fd5b506105bf6004803603604081101561058957600080fd5b81019080803573ffffffffffffffffffffffffffffffffffffffff16906020019092919080359060200190929190505050610f1a565b60405180821515815260200191505060405180910390f35b3480156105e357600080fd5b50610630600480360360408110156105fa57600080fd5b81019080803573ffffffffffffffffffffffffffffffffffffffff16906020019092919080359060200190929190505050610fe7565b60405180821515815260200191505060405180910390f35b34801561065457600080fd5b506106b76004803603604081101561066b57600080fd5b81019080803573ffffffffffffffffffffffffffffffffffffffff169060200190929190803573ffffffffffffffffffffffffffffffffffffffff169060200190929190505050611005565b6040518082815260200191505060405180910390f35b60008060008373ffffffffffffffffffffffffffffffffffffffff1673ffffffffffffffffffffffffffffffffffffffff168152602001908152602001600020549050919050565b600080670de0b6b3a76400009050600061073884436111e490919063ffffffff16565b9050600081111561086157600061077e600261077061076160028661122e90919063ffffffff16565b856111e490919063ffffffff16565b61111290919063ffffffff16565b905060005b818110156107c9576107ba670de0b6b3a76400006107ac6009548761108c90919063ffffffff16565b61111290919063ffffffff16565b93508080600101915050610783565b5060016107e060028461122e90919063ffffffff16565b141561081857610815670de0b6b3a76400006108076008548661108c90919063ffffffff16565b61111290919063ffffffff16565b92505b61085786610849670de0b6b3a764000061083b878b61108c90919063ffffffff16565b61111290919063ffffffff16565b6111e490919063ffffffff16565b9350505050610872565b6000811461086b57fe5b6000925050505b92915050565b600073ffffffffffffffffffffffffffffffffffffffff168273ffffffffffffffffffffffffffffffffffffffff16141561091b576040517f08c379a000000000000000000000000000000000000000000000000000000000815260040180806020018281038252601f8152602001807f45524332303a206d696e7420746f20746865207a65726f20616464726573730081525060200191505060405180910390fd5b61092760008383611278565b61093c8160025461115c90919063ffffffff16565b600281905550610993816000808573ffffffffffffffffffffffffffffffffffffffff1673ffffffffffffffffffffffffffffffffffffffff1681526020019081526020016000205461115c90919063ffffffff16565b6000808473ffffffffffffffffffffffffffffffffffffffff1673ffffffffffffffffffffffffffffffffffffffff168152602001908152602001600020819055508173ffffffffffffffffffffffffffffffffffffffff16600073ffffffffffffffffffffffffffffffffffffffff167fddf252ad1be2c89b69c2b068fc378daa952ba7f163c4a11628f55a4df523b3ef836040518082815260200191505060405180910390a35050565b600a60009054906101000a900473ffffffffffffffffffffffffffffffffffffffff1673ffffffffffffffffffffffffffffffffffffffff1663b6b55f25826040518263ffffffff1660e01b815260040180828152602001915050600060405180830381600087803b158015610ab457600080fd5b505af1158015610ac8573d6000803e3d6000fd5b5050505050565b606060038054600181600116156101000203166002900480601f016020809104026020016040519081016040528092919081815260200182805460018160011615610100020316600290048015610b675780601f10610b3c57610100808354040283529160200191610b67565b820191906000526020600020905b815481529060010190602001808311610b4a57829003601f168201915b5050505050905090565b6000610b85610b7e61127d565b8484611285565b6001905092915050565b6000600254905090565b6000610ba684848461147c565b610c6784610bb261127d565b610c6285604051806060016040528060288152602001611f8b60289139600160008b73ffffffffffffffffffffffffffffffffffffffff1673ffffffffffffffffffffffffffffffffffffffff1681526020019081526020016000206000610c1861127d565b73ffffffffffffffffffffffffffffffffffffffff1673ffffffffffffffffffffffffffffffffffffffff168152602001908152602001600020546116789092919063ffffffff16565b611285565b600190509392505050565b6000600560009054906101000a900460ff16905090565b6000610d32610c9661127d565b84610d2d8560016000610ca761127d565b73ffffffffffffffffffffffffffffffffffffffff1673ffffffffffffffffffffffffffffffffffffffff16815260200190815260200160002060008973ffffffffffffffffffffffffffffffffffffffff1673ffffffffffffffffffffffffffffffffffffffff1681526020019081526020016000205461115c90919063ffffffff16565b611285565b6001905092915050565b6000610d47336106cd565b90506000610d9482600660003373ffffffffffffffffffffffffffffffffffffffff1673ffffffffffffffffffffffffffffffffffffffff16815260200190815260200160002054610715565b905043600660003373ffffffffffffffffffffffffffffffffffffffff1673ffffffffffffffffffffffffffffffffffffffff16815260200190815260200160002081905550610de43382610878565b610dff610dfa828461115c90919063ffffffff16565b611738565b610e1b33610e16838561115c90919063ffffffff16565b6118d0565b3073ffffffffffffffffffffffffffffffffffffffff166108fc610e48838561115c90919063ffffffff16565b9081150290604051600060405180830381858888f19350505050158015610e73573d6000803e3d6000fd5b505050565b606060048054600181600116156101000203166002900480601f016020809104026020016040519081016040528092919081815260200182805460018160011615610100020316600290048015610f105780601f10610ee557610100808354040283529160200191610f10565b820191906000526020600020905b815481529060010190602001808311610ef357829003601f168201915b5050505050905090565b6000610fdd610f2761127d565b84610fd88560405180606001604052806025815260200161201d6025913960016000610f5161127d565b73ffffffffffffffffffffffffffffffffffffffff1673ffffffffffffffffffffffffffffffffffffffff16815260200190815260200160002060008a73ffffffffffffffffffffffffffffffffffffffff1673ffffffffffffffffffffffffffffffffffffffff168152602001908152602001600020546116789092919063ffffffff16565b611285565b6001905092915050565b6000610ffb610ff461127d565b848461147c565b6001905092915050565b6000600160008473ffffffffffffffffffffffffffffffffffffffff1673ffffffffffffffffffffffffffffffffffffffff16815260200190815260200160002060008373ffffffffffffffffffffffffffffffffffffffff1673ffffffffffffffffffffffffffffffffffffffff16815260200190815260200160002054905092915050565b60008083141561109f576000905061110c565b60008284029050828482816110b057fe5b0414611107576040517f08c379a0000000000000000000000000000000000000000000000000000000008152600401808060200182810382526021815260200180611f6a6021913960400191505060405180910390fd5b809150505b92915050565b600061115483836040518060400160405280601a81526020017f536166654d6174683a206469766973696f6e206279207a65726f000000000000815250611a94565b905092915050565b6000808284019050838110156111da576040517f08c379a000000000000000000000000000000000000000000000000000000000815260040180806020018281038252601b8152602001807f536166654d6174683a206164646974696f6e206f766572666c6f77000000000081525060200191505060405180910390fd5b8091505092915050565b600061122683836040518060400160405280601e81526020017f536166654d6174683a207375627472616374696f6e206f766572666c6f770000815250611678565b905092915050565b600061127083836040518060400160405280601881526020017f536166654d6174683a206d6f64756c6f206279207a65726f0000000000000000815250611b5a565b905092915050565b505050565b600033905090565b600073ffffffffffffffffffffffffffffffffffffffff168373ffffffffffffffffffffffffffffffffffffffff16141561130b576040517f08c379a0000000000000000000000000000000000000000000000000000000008152600401808060200182810382526024815260200180611ff96024913960400191505060405180910390fd5b600073ffffffffffffffffffffffffffffffffffffffff168273ffffffffffffffffffffffffffffffffffffffff161415611391576040517f08c379a0000000000000000000000000000000000000000000000000000000008152600401808060200182810382526022815260200180611f226022913960400191505060405180910390fd5b80600160008573ffffffffffffffffffffffffffffffffffffffff1673ffffffffffffffffffffffffffffffffffffffff16815260200190815260200160002060008473ffffffffffffffffffffffffffffffffffffffff1673ffffffffffffffffffffffffffffffffffffffff168152602001908152602001600020819055508173ffffffffffffffffffffffffffffffffffffffff168373ffffffffffffffffffffffffffffffffffffffff167f8c5be1e5ebec7d5bd14f71427d1e84f3dd0314c0f7b2291e5b200ac8c7c3b925836040518082815260200191505060405180910390a3505050565b6000611487846106cd565b90506000611494846106cd565b905060006114e183600660008973ffffffffffffffffffffffffffffffffffffffff1673ffffffffffffffffffffffffffffffffffffffff16815260200190815260200160002054610715565b9050600080600660008973ffffffffffffffffffffffffffffffffffffffff1673ffffffffffffffffffffffffffffffffffffffff16815260200190815260200160002054141580611534575060008314155b156115855761158283600660008a73ffffffffffffffffffffffffffffffffffffffff1673ffffffffffffffffffffffffffffffffffffffff16815260200190815260200160002054610715565b90505b43600660008973ffffffffffffffffffffffffffffffffffffffff1673ffffffffffffffffffffffffffffffffffffffff1681526020019081526020016000208190555043600660008873ffffffffffffffffffffffffffffffffffffffff1673ffffffffffffffffffffffffffffffffffffffff168152602001908152602001600020819055506116178783610878565b8573ffffffffffffffffffffffffffffffffffffffff168773ffffffffffffffffffffffffffffffffffffffff1614158015611654575060008114155b15611664576116638682610878565b5b61166f878787611c1b565b50505050505050565b6000838311158290611725576040517f08c379a00000000000000000000000000000000000000000000000000000000081526004018080602001828103825283818151815260200191508051906020019080838360005b838110156116ea5780820151818401526020810190506116cf565b50505050905090810190601f1680156117175780820380516001836020036101000a031916815260200191505b509250505060405180910390fd5b5060008385039050809150509392505050565b6000600a60009054906101000a900473ffffffffffffffffffffffffffffffffffffffff1673ffffffffffffffffffffffffffffffffffffffff1663b04ef9c2306040518263ffffffff1660e01b8152600401808273ffffffffffffffffffffffffffffffffffffffff16815260200191505060206040518083038186803b1580156117c357600080fd5b505afa1580156117d7573d6000803e3d6000fd5b505050506040513d60208110156117ed57600080fd5b81019080805190602001909291905050509050600a60009054906101000a900473ffffffffffffffffffffffffffffffffffffffff1673ffffffffffffffffffffffffffffffffffffffff16632e1a7d4d826040518263ffffffff1660e01b815260040180828152602001915050600060405180830381600087803b15801561187557600080fd5b505af1158015611889573d6000803e3d6000fd5b50505050670de0b6b3a76400006118a983476111e490919063ffffffff16565b10156118b157fe5b6118cc6118c783476111e490919063ffffffff16565b610a3f565b5050565b600073ffffffffffffffffffffffffffffffffffffffff168273ffffffffffffffffffffffffffffffffffffffff161415611956576040517f08c379a0000000000000000000000000000000000000000000000000000000008152600401808060200182810382526021815260200180611fb36021913960400191505060405180910390fd5b61196282600083611278565b6119cd81604051806060016040528060228152602001611f00602291396000808673ffffffffffffffffffffffffffffffffffffffff1673ffffffffffffffffffffffffffffffffffffffff168152602001908152602001600020546116789092919063ffffffff16565b6000808473ffffffffffffffffffffffffffffffffffffffff1673ffffffffffffffffffffffffffffffffffffffff16815260200190815260200160002081905550611a24816002546111e490919063ffffffff16565b600281905550600073ffffffffffffffffffffffffffffffffffffffff168273ffffffffffffffffffffffffffffffffffffffff167fddf252ad1be2c89b69c2b068fc378daa952ba7f163c4a11628f55a4df523b3ef836040518082815260200191505060405180910390a35050565b60008083118290611b40576040517f08c379a00000000000000000000000000000000000000000000000000000000081526004018080602001828103825283818151815260200191508051906020019080838360005b83811015611b05578082015181840152602081019050611aea565b50505050905090810190601f168015611b325780820380516001836020036101000a031916815260200191505b509250505060405180910390fd5b506000838581611b4c57fe5b049050809150509392505050565b6000808314158290611c07576040517f08c379a00000000000000000000000000000000000000000000000000000000081526004018080602001828103825283818151815260200191508051906020019080838360005b83811015611bcc578082015181840152602081019050611bb1565b50505050905090810190601f168015611bf95780820380516001836020036101000a031916815260200191505b509250505060405180910390fd5b50828481611c1157fe5b0690509392505050565b600073ffffffffffffffffffffffffffffffffffffffff168373ffffffffffffffffffffffffffffffffffffffff161415611ca1576040517f08c379a0000000000000000000000000000000000000000000000000000000008152600401808060200182810382526025815260200180611fd46025913960400191505060405180910390fd5b600073ffffffffffffffffffffffffffffffffffffffff168273ffffffffffffffffffffffffffffffffffffffff161415611d27576040517f08c379a0000000000000000000000000000000000000000000000000000000008152600401808060200182810382526023815260200180611edd6023913960400191505060405180910390fd5b611d32838383611278565b611d9d81604051806060016040528060268152602001611f44602691396000808773ffffffffffffffffffffffffffffffffffffffff1673ffffffffffffffffffffffffffffffffffffffff168152602001908152602001600020546116789092919063ffffffff16565b6000808573ffffffffffffffffffffffffffffffffffffffff1673ffffffffffffffffffffffffffffffffffffffff16815260200190815260200160002081905550611e30816000808573ffffffffffffffffffffffffffffffffffffffff1673ffffffffffffffffffffffffffffffffffffffff1681526020019081526020016000205461115c90919063ffffffff16565b6000808473ffffffffffffffffffffffffffffffffffffffff1673ffffffffffffffffffffffffffffffffffffffff168152602001908152602001600020819055508173ffffffffffffffffffffffffffffffffffffffff168373ffffffffffffffffffffffffffffffffffffffff167fddf252ad1be2c89b69c2b068fc378daa952ba7f163c4a11628f55a4df523b3ef836040518082815260200191505060405180910390a350505056fe45524332303a207472616e7366657220746f20746865207a65726f206164647265737345524332303a206275726e20616d6f756e7420657863656564732062616c616e636545524332303a20617070726f766520746f20746865207a65726f206164647265737345524332303a207472616e7366657220616d6f756e7420657863656564732062616c616e6365536166654d6174683a206d756c7469706c69636174696f6e206f766572666c6f7745524332303a207472616e7366657220616d6f756e74206578636565647320616c6c6f77616e636545524332303a206275726e2066726f6d20746865207a65726f206164647265737345524332303a207472616e736665722066726f6d20746865207a65726f206164647265737345524332303a20617070726f76652066726f6d20746865207a65726f206164647265737345524332303a2064656372656173656420616c6c6f77616e63652062656c6f77207a65726fa2646970667358221220a87043005803a1caa15ffd6acd474cb195b2473e63bc28d1b33bb07968c910f664736f6c634300060c0033536166654d6174683a206d756c7469706c69636174696f6e206f766572666c6f77",
  "immutableReferences": {},
  "source": "// SPDX-License-Identifier: MIT\n\npragma solidity ^0.6.0;\n\n// import \"https://github.com/OpenZeppelin/openzeppelin-contracts/blob/master/contracts/token/ERC20/ERC20.sol\";\nimport \"@openzeppelin/contracts/token/ERC20/ERC20.sol\";\nimport \"./Staking.sol\";\n\ncontract StakedCFX is ERC20 {\n    mapping (address => uint256) private _lastBlockCalc;\n    uint256 private baseRate = 4; //4 percent (staking yield)\n    uint256 private _percentage = baseRate.mul(1e16).div(63072000).add(1e18); //1e16 maintains 0.04/63072000, scaled by 1e18\n    uint256 private _percentage2 = _percentage.mul(_percentage).div(1e18); // squared term\n\n    Staking internal s = Staking(0x0888000000000000000000000000000000000002);\n\n    constructor() public payable ERC20(\"Staked CFX\", \"sCFX\") {\n      require(msg.value == 1e18, \"must deploy with 1 CFX\"); //deploy with 1 CFX to ensure tokens always can be restaked\n    }\n\n    function _transfer(address sender, address recipient, uint256 amount) internal override {\n        // get balances of sender + recipient\n        uint256 balanceSender = balanceOf(sender);\n        uint256 balanceRecipient = balanceOf(recipient);\n\n        // calculate interest for sender + recipient\n        uint interestSender = _calculateInterest(balanceSender, _lastBlockCalc[sender]);\n        uint interestRecipient = 0; //interest = 0 (special case when recipient has never had tokens or currently has none)\n        if (_lastBlockCalc[sender] != 0 || balanceRecipient != 0) {\n            interestRecipient= _calculateInterest(balanceRecipient, _lastBlockCalc[sender]); //otherwise calculate\n        }\n\n        // update last block that calculation was run + interested was distributed\n        _lastBlockCalc[sender] = block.number;\n        _lastBlockCalc[recipient] = block.number;\n\n        // mint interest tokens\n        _mint(sender, interestSender);\n        if (sender != recipient && interestRecipient != 0) { //handle special case of sender = recipient (no duplicate interest), ignore if interestRecipient = 0 (save gas)\n            _mint(recipient, interestRecipient);\n        }\n\n        // transfer amounts\n        super._transfer(sender, recipient, amount);\n    }\n\n    function _calculateInterest(uint256 _balance, uint256 _blockNumber) internal view returns (uint256 interest) {\n        uint256 _percentageCalc = 1e18; //starting with 1\n        uint256 blockDiff = block.number.sub(_blockNumber);\n        if (blockDiff > 0) { //exponentiation by squaring (is there a more efficient method?)\n            uint256 loopNum = blockDiff.sub(blockDiff.mod(2)).div(2);\n            // https://en.m.wikipedia.org/wiki/Exponentiation_by_squaring\n            for (uint i = 0; i < loopNum; i++) {\n                _percentageCalc = _percentageCalc.mul(_percentage2).div(1e18); //divide by 1e18 to maintain 1e18 scaling\n            }\n\n            if (blockDiff.mod(2) == 1) {\n              _percentageCalc = _percentageCalc.mul(_percentage).div(1e18);\n            }\n\n            return _balance.mul(_percentageCalc).div(1e18).sub(_balance); //calculate new balance, remove scaling, subtract base amount to return interest amount\n        } else {\n            assert(blockDiff == 0);\n            return 0; //return balance if block.number.sub(_blockNumber) = 0\n        }\n\n    }\n\n    function _stake(uint256 amt) internal {\n      s.deposit(amt);\n    }\n\n    function _unstake(uint256 amt) internal {\n      // withdraw all tokens\n      uint256 balance = s.getStakingBalance(address(this));\n      s.withdraw(balance);\n\n      // restake all tokens minus the amount to be returned\n      assert(address(this).balance.sub(amt) >= 1e18); // balance will always be >= 1 CFX\n      _stake(address(this).balance.sub(amt));\n    }\n\n    function withdraw() external {\n        uint256 balance = balanceOf(msg.sender); // get balances of sender + recipient\n\n        uint256 interest = _calculateInterest(balance, _lastBlockCalc[msg.sender]); // calculate interest for sender + recipient\n\n        _lastBlockCalc[msg.sender] = block.number; // update last block that calculation was run + interested was distributed\n\n        _mint(msg.sender, interest); //distribute interest\n\n        _unstake(balance.add(interest)); //unstake CFX\n\n        _burn(msg.sender, balance.add(interest)); //burn tokens\n\n        address(this).transfer(balance.add(interest)); // send tokens\n    }\n\n    receive() external payable {\n        require(msg.value >= 1e18, \"minimum deposit = 1 CFX\");\n\n        // mint interest if there is a non-zero balance\n        if (balanceOf(msg.sender) > 0) {\n          uint256 interest = _calculateInterest(balanceOf(msg.sender), _lastBlockCalc[msg.sender]);\n          _mint(msg.sender, interest);\n        }\n\n        _lastBlockCalc[msg.sender] = block.number; //set the latest block number\n        _stake(address(this).balance); //stake all deposited tokens\n        _mint(msg.sender, msg.value); //mint equivalent tokens\n    }\n}\n",
  "sourcePath": "/home/aalu1418/Documents/tokenized-stake/contracts/StakedCFX.sol",
  "compiler": {
    "name": "solc",
    "version": "0.6.12+commit.27d51765.Emscripten.clang"
  },
  "schemaVersion": "3.2.0",
  "updatedAt": "2020-11-24T03:47:37.177Z",
  "networkType": "conflux",
  "devdoc": {
    "kind": "dev",
    "methods": {
      "allowance(address,address)": {
        "details": "See {IERC20-allowance}."
      },
      "approve(address,uint256)": {
        "details": "See {IERC20-approve}. Requirements: - `spender` cannot be the zero address."
      },
      "balanceOf(address)": {
        "details": "See {IERC20-balanceOf}."
      },
      "decimals()": {
        "details": "Returns the number of decimals used to get its user representation. For example, if `decimals` equals `2`, a balance of `505` tokens should be displayed to a user as `5,05` (`505 / 10 ** 2`). Tokens usually opt for a value of 18, imitating the relationship between Ether and Wei. This is the value {ERC20} uses, unless {_setupDecimals} is called. NOTE: This information is only used for _display_ purposes: it in no way affects any of the arithmetic of the contract, including {IERC20-balanceOf} and {IERC20-transfer}."
      },
      "decreaseAllowance(address,uint256)": {
        "details": "Atomically decreases the allowance granted to `spender` by the caller. This is an alternative to {approve} that can be used as a mitigation for problems described in {IERC20-approve}. Emits an {Approval} event indicating the updated allowance. Requirements: - `spender` cannot be the zero address. - `spender` must have allowance for the caller of at least `subtractedValue`."
      },
      "increaseAllowance(address,uint256)": {
        "details": "Atomically increases the allowance granted to `spender` by the caller. This is an alternative to {approve} that can be used as a mitigation for problems described in {IERC20-approve}. Emits an {Approval} event indicating the updated allowance. Requirements: - `spender` cannot be the zero address."
      },
      "name()": {
        "details": "Returns the name of the token."
      },
      "symbol()": {
        "details": "Returns the symbol of the token, usually a shorter version of the name."
      },
      "totalSupply()": {
        "details": "See {IERC20-totalSupply}."
      },
      "transfer(address,uint256)": {
        "details": "See {IERC20-transfer}. Requirements: - `recipient` cannot be the zero address. - the caller must have a balance of at least `amount`."
      },
      "transferFrom(address,address,uint256)": {
        "details": "See {IERC20-transferFrom}. Emits an {Approval} event indicating the updated allowance. This is not required by the EIP. See the note at the beginning of {ERC20}; Requirements: - `sender` and `recipient` cannot be the zero address. - `sender` must have a balance of at least `amount`. - the caller must have allowance for ``sender``'s tokens of at least `amount`."
      }
    },
    "version": 1
  },
  "userdoc": {
    "kind": "user",
    "methods": {},
    "version": 1
  }
}