{
  "contractName": "StakedCFX",
  "abi": [
    {
      "inputs": [],
      "stateMutability": "payable",
      "type": "constructor",
      "payable": true
    },
    {
      "anonymous": false,
      "inputs": [
        {
          "indexed": true,
          "internalType": "address",
          "name": "owner",
          "type": "address"
        },
        {
          "indexed": true,
          "internalType": "address",
          "name": "spender",
          "type": "address"
        },
        {
          "indexed": false,
          "internalType": "uint256",
          "name": "value",
          "type": "uint256"
        }
      ],
      "name": "Approval",
      "type": "event"
    },
    {
      "anonymous": false,
      "inputs": [
        {
          "indexed": true,
          "internalType": "address",
          "name": "from",
          "type": "address"
        },
        {
          "indexed": true,
          "internalType": "address",
          "name": "to",
          "type": "address"
        },
        {
          "indexed": false,
          "internalType": "uint256",
          "name": "value",
          "type": "uint256"
        }
      ],
      "name": "Transfer",
      "type": "event"
    },
    {
      "inputs": [
        {
          "internalType": "address",
          "name": "owner",
          "type": "address"
        },
        {
          "internalType": "address",
          "name": "spender",
          "type": "address"
        }
      ],
      "name": "allowance",
      "outputs": [
        {
          "internalType": "uint256",
          "name": "",
          "type": "uint256"
        }
      ],
      "stateMutability": "view",
      "type": "function",
      "constant": true
    },
    {
      "inputs": [
        {
          "internalType": "address",
          "name": "spender",
          "type": "address"
        },
        {
          "internalType": "uint256",
          "name": "amount",
          "type": "uint256"
        }
      ],
      "name": "approve",
      "outputs": [
        {
          "internalType": "bool",
          "name": "",
          "type": "bool"
        }
      ],
      "stateMutability": "nonpayable",
      "type": "function"
    },
    {
      "inputs": [
        {
          "internalType": "address",
          "name": "account",
          "type": "address"
        }
      ],
      "name": "balanceOf",
      "outputs": [
        {
          "internalType": "uint256",
          "name": "",
          "type": "uint256"
        }
      ],
      "stateMutability": "view",
      "type": "function",
      "constant": true
    },
    {
      "inputs": [],
      "name": "decimals",
      "outputs": [
        {
          "internalType": "uint8",
          "name": "",
          "type": "uint8"
        }
      ],
      "stateMutability": "view",
      "type": "function",
      "constant": true
    },
    {
      "inputs": [
        {
          "internalType": "address",
          "name": "spender",
          "type": "address"
        },
        {
          "internalType": "uint256",
          "name": "subtractedValue",
          "type": "uint256"
        }
      ],
      "name": "decreaseAllowance",
      "outputs": [
        {
          "internalType": "bool",
          "name": "",
          "type": "bool"
        }
      ],
      "stateMutability": "nonpayable",
      "type": "function"
    },
    {
      "inputs": [
        {
          "internalType": "address",
          "name": "spender",
          "type": "address"
        },
        {
          "internalType": "uint256",
          "name": "addedValue",
          "type": "uint256"
        }
      ],
      "name": "increaseAllowance",
      "outputs": [
        {
          "internalType": "bool",
          "name": "",
          "type": "bool"
        }
      ],
      "stateMutability": "nonpayable",
      "type": "function"
    },
    {
      "inputs": [],
      "name": "name",
      "outputs": [
        {
          "internalType": "string",
          "name": "",
          "type": "string"
        }
      ],
      "stateMutability": "view",
      "type": "function",
      "constant": true
    },
    {
      "inputs": [],
      "name": "symbol",
      "outputs": [
        {
          "internalType": "string",
          "name": "",
          "type": "string"
        }
      ],
      "stateMutability": "view",
      "type": "function",
      "constant": true
    },
    {
      "inputs": [],
      "name": "totalSupply",
      "outputs": [
        {
          "internalType": "uint256",
          "name": "",
          "type": "uint256"
        }
      ],
      "stateMutability": "view",
      "type": "function",
      "constant": true
    },
    {
      "inputs": [
        {
          "internalType": "address",
          "name": "recipient",
          "type": "address"
        },
        {
          "internalType": "uint256",
          "name": "amount",
          "type": "uint256"
        }
      ],
      "name": "transfer",
      "outputs": [
        {
          "internalType": "bool",
          "name": "",
          "type": "bool"
        }
      ],
      "stateMutability": "nonpayable",
      "type": "function"
    },
    {
      "inputs": [
        {
          "internalType": "address",
          "name": "sender",
          "type": "address"
        },
        {
          "internalType": "address",
          "name": "recipient",
          "type": "address"
        },
        {
          "internalType": "uint256",
          "name": "amount",
          "type": "uint256"
        }
      ],
      "name": "transferFrom",
      "outputs": [
        {
          "internalType": "bool",
          "name": "",
          "type": "bool"
        }
      ],
      "stateMutability": "nonpayable",
      "type": "function"
    },
    {
      "stateMutability": "payable",
      "type": "receive",
      "payable": true
    },
    {
      "inputs": [],
      "name": "withdraw",
      "outputs": [],
      "stateMutability": "nonpayable",
      "type": "function"
    }
  ],
  "bytecode": "0x608060405260046007556200006a670de0b6b3a7640000620000566303c2670062000042662386f26fc100006007546200020260201b6200101d1790919060201c565b6200028d60201b620010a31790919060201c565b620002df60201b620010ed1790919060201c565b600855730888000000000000000000000000000000000002600960006101000a81548173ffffffffffffffffffffffffffffffffffffffff021916908373ffffffffffffffffffffffffffffffffffffffff1602179055506040518060400160405280600a81526020017f5374616b656420434658000000000000000000000000000000000000000000008152506040518060400160405280600481526020017f734346580000000000000000000000000000000000000000000000000000000081525081600390805190602001906200014692919062000433565b5080600490805190602001906200015f92919062000433565b506012600560006101000a81548160ff021916908360ff1602179055505050670de0b6b3a76400003414620001fc576040517f08c379a00000000000000000000000000000000000000000000000000000000081526004018080602001828103825260168152602001807f6d757374206465706c6f7920776974682031204346580000000000000000000081525060200191505060405180910390fd5b620004d9565b60008083141562000217576000905062000287565b60008284029050828482816200022957fe5b041462000282576040517f08c379a0000000000000000000000000000000000000000000000000000000008152600401808060200182810382526021815260200180620023e66021913960400191505060405180910390fd5b809150505b92915050565b6000620002d783836040518060400160405280601a81526020017f536166654d6174683a206469766973696f6e206279207a65726f0000000000008152506200036860201b60201c565b905092915050565b6000808284019050838110156200035e576040517f08c379a000000000000000000000000000000000000000000000000000000000815260040180806020018281038252601b8152602001807f536166654d6174683a206164646974696f6e206f766572666c6f77000000000081525060200191505060405180910390fd5b8091505092915050565b6000808311829062000418576040517f08c379a00000000000000000000000000000000000000000000000000000000081526004018080602001828103825283818151815260200191508051906020019080838360005b83811015620003dc578082015181840152602081019050620003bf565b50505050905090810190601f1680156200040a5780820380516001836020036101000a031916815260200191505b509250505060405180910390fd5b5060008385816200042557fe5b049050809150509392505050565b828054600181600116156101000203166002900490600052602060002090601f016020900481019282601f106200047657805160ff1916838001178555620004a7565b82800160010185558215620004a7579182015b82811115620004a657825182559160200191906001019062000489565b5b509050620004b69190620004ba565b5090565b5b80821115620004d5576000816000905550600101620004bb565b5090565b611efd80620004e96000396000f3fe6080604052600436106100ab5760003560e01c80633ccfd60b116100645780633ccfd60b1461045a57806370a082311461047157806395d89b41146104d6578063a457c2d714610566578063a9059cbb146105d7578063dd62ed3e14610648576101f9565b806306fdde03146101fe578063095ea7b31461028e57806318160ddd146102ff57806323b872dd1461032a578063313ce567146103bb57806339509351146103e9576101f9565b366101f957670de0b6b3a764000034101561012e576040517f08c379a00000000000000000000000000000000000000000000000000000000081526004018080602001828103825260178152602001807f6d696e696d756d206465706f736974203d20312043465800000000000000000081525060200191505060405180910390fd5b6000610139336106cd565b11156101a057600061019261014d336106cd565b600660003373ffffffffffffffffffffffffffffffffffffffff1673ffffffffffffffffffffffffffffffffffffffff16815260200190815260200160002054610715565b905061019e3382610809565b505b43600660003373ffffffffffffffffffffffffffffffffffffffff1673ffffffffffffffffffffffffffffffffffffffff168152602001908152602001600020819055506101ed476109d0565b6101f73334610809565b005b600080fd5b34801561020a57600080fd5b50610213610a60565b6040518080602001828103825283818151815260200191508051906020019080838360005b83811015610253578082015181840152602081019050610238565b50505050905090810190601f1680156102805780820380516001836020036101000a031916815260200191505b509250505060405180910390f35b34801561029a57600080fd5b506102e7600480360360408110156102b157600080fd5b81019080803573ffffffffffffffffffffffffffffffffffffffff16906020019092919080359060200190929190505050610b02565b60405180821515815260200191505060405180910390f35b34801561030b57600080fd5b50610314610b20565b6040518082815260200191505060405180910390f35b34801561033657600080fd5b506103a36004803603606081101561034d57600080fd5b81019080803573ffffffffffffffffffffffffffffffffffffffff169060200190929190803573ffffffffffffffffffffffffffffffffffffffff16906020019092919080359060200190929190505050610b2a565b60405180821515815260200191505060405180910390f35b3480156103c757600080fd5b506103d0610c03565b604051808260ff16815260200191505060405180910390f35b3480156103f557600080fd5b506104426004803603604081101561040c57600080fd5b81019080803573ffffffffffffffffffffffffffffffffffffffff16906020019092919080359060200190929190505050610c1a565b60405180821515815260200191505060405180910390f35b34801561046657600080fd5b5061046f610ccd565b005b34801561047d57600080fd5b506104c06004803603602081101561049457600080fd5b81019080803573ffffffffffffffffffffffffffffffffffffffff1690602001909291905050506106cd565b6040518082815260200191505060405180910390f35b3480156104e257600080fd5b506104eb610e09565b6040518080602001828103825283818151815260200191508051906020019080838360005b8381101561052b578082015181840152602081019050610510565b50505050905090810190601f1680156105585780820380516001836020036101000a031916815260200191505b509250505060405180910390f35b34801561057257600080fd5b506105bf6004803603604081101561058957600080fd5b81019080803573ffffffffffffffffffffffffffffffffffffffff16906020019092919080359060200190929190505050610eab565b60405180821515815260200191505060405180910390f35b3480156105e357600080fd5b50610630600480360360408110156105fa57600080fd5b81019080803573ffffffffffffffffffffffffffffffffffffffff16906020019092919080359060200190929190505050610f78565b60405180821515815260200191505060405180910390f35b34801561065457600080fd5b506106b76004803603604081101561066b57600080fd5b81019080803573ffffffffffffffffffffffffffffffffffffffff169060200190929190803573ffffffffffffffffffffffffffffffffffffffff169060200190929190505050610f96565b6040518082815260200191505060405180910390f35b60008060008373ffffffffffffffffffffffffffffffffffffffff1673ffffffffffffffffffffffffffffffffffffffff168152602001908152602001600020549050919050565b600080670de0b6b3a764000090506000610738844361117590919063ffffffff16565b11156107e15760005b610754844361117590919063ffffffff16565b8110156107995761078a670de0b6b3a764000061077c6008548561101d90919063ffffffff16565b6110a390919063ffffffff16565b91508080600101915050610741565b506107d9846107cb670de0b6b3a76400006107bd858961101d90919063ffffffff16565b6110a390919063ffffffff16565b61117590919063ffffffff16565b915050610803565b60006107f6844361117590919063ffffffff16565b146107fd57fe5b60009150505b92915050565b600073ffffffffffffffffffffffffffffffffffffffff168273ffffffffffffffffffffffffffffffffffffffff1614156108ac576040517f08c379a000000000000000000000000000000000000000000000000000000000815260040180806020018281038252601f8152602001807f45524332303a206d696e7420746f20746865207a65726f20616464726573730081525060200191505060405180910390fd5b6108b8600083836111bf565b6108cd816002546110ed90919063ffffffff16565b600281905550610924816000808573ffffffffffffffffffffffffffffffffffffffff1673ffffffffffffffffffffffffffffffffffffffff168152602001908152602001600020546110ed90919063ffffffff16565b6000808473ffffffffffffffffffffffffffffffffffffffff1673ffffffffffffffffffffffffffffffffffffffff168152602001908152602001600020819055508173ffffffffffffffffffffffffffffffffffffffff16600073ffffffffffffffffffffffffffffffffffffffff167fddf252ad1be2c89b69c2b068fc378daa952ba7f163c4a11628f55a4df523b3ef836040518082815260200191505060405180910390a35050565b600960009054906101000a900473ffffffffffffffffffffffffffffffffffffffff1673ffffffffffffffffffffffffffffffffffffffff1663b6b55f25826040518263ffffffff1660e01b815260040180828152602001915050600060405180830381600087803b158015610a4557600080fd5b505af1158015610a59573d6000803e3d6000fd5b5050505050565b606060038054600181600116156101000203166002900480601f016020809104026020016040519081016040528092919081815260200182805460018160011615610100020316600290048015610af85780601f10610acd57610100808354040283529160200191610af8565b820191906000526020600020905b815481529060010190602001808311610adb57829003601f168201915b5050505050905090565b6000610b16610b0f6111c4565b84846111cc565b6001905092915050565b6000600254905090565b6000610b378484846113c3565b610bf884610b436111c4565b610bf385604051806060016040528060288152602001611e1160289139600160008b73ffffffffffffffffffffffffffffffffffffffff1673ffffffffffffffffffffffffffffffffffffffff1681526020019081526020016000206000610ba96111c4565b73ffffffffffffffffffffffffffffffffffffffff1673ffffffffffffffffffffffffffffffffffffffff168152602001908152602001600020546115bf9092919063ffffffff16565b6111cc565b600190509392505050565b6000600560009054906101000a900460ff16905090565b6000610cc3610c276111c4565b84610cbe8560016000610c386111c4565b73ffffffffffffffffffffffffffffffffffffffff1673ffffffffffffffffffffffffffffffffffffffff16815260200190815260200160002060008973ffffffffffffffffffffffffffffffffffffffff1673ffffffffffffffffffffffffffffffffffffffff168152602001908152602001600020546110ed90919063ffffffff16565b6111cc565b6001905092915050565b6000610cd8336106cd565b90506000610d2582600660003373ffffffffffffffffffffffffffffffffffffffff1673ffffffffffffffffffffffffffffffffffffffff16815260200190815260200160002054610715565b905043600660003373ffffffffffffffffffffffffffffffffffffffff1673ffffffffffffffffffffffffffffffffffffffff16815260200190815260200160002081905550610d753382610809565b610d90610d8b82846110ed90919063ffffffff16565b61167f565b610dac33610da783856110ed90919063ffffffff16565b611817565b3073ffffffffffffffffffffffffffffffffffffffff166108fc610dd983856110ed90919063ffffffff16565b9081150290604051600060405180830381858888f19350505050158015610e04573d6000803e3d6000fd5b505050565b606060048054600181600116156101000203166002900480601f016020809104026020016040519081016040528092919081815260200182805460018160011615610100020316600290048015610ea15780601f10610e7657610100808354040283529160200191610ea1565b820191906000526020600020905b815481529060010190602001808311610e8457829003601f168201915b5050505050905090565b6000610f6e610eb86111c4565b84610f6985604051806060016040528060258152602001611ea36025913960016000610ee26111c4565b73ffffffffffffffffffffffffffffffffffffffff1673ffffffffffffffffffffffffffffffffffffffff16815260200190815260200160002060008a73ffffffffffffffffffffffffffffffffffffffff1673ffffffffffffffffffffffffffffffffffffffff168152602001908152602001600020546115bf9092919063ffffffff16565b6111cc565b6001905092915050565b6000610f8c610f856111c4565b84846113c3565b6001905092915050565b6000600160008473ffffffffffffffffffffffffffffffffffffffff1673ffffffffffffffffffffffffffffffffffffffff16815260200190815260200160002060008373ffffffffffffffffffffffffffffffffffffffff1673ffffffffffffffffffffffffffffffffffffffff16815260200190815260200160002054905092915050565b600080831415611030576000905061109d565b600082840290508284828161104157fe5b0414611098576040517f08c379a0000000000000000000000000000000000000000000000000000000008152600401808060200182810382526021815260200180611df06021913960400191505060405180910390fd5b809150505b92915050565b60006110e583836040518060400160405280601a81526020017f536166654d6174683a206469766973696f6e206279207a65726f0000000000008152506119db565b905092915050565b60008082840190508381101561116b576040517f08c379a000000000000000000000000000000000000000000000000000000000815260040180806020018281038252601b8152602001807f536166654d6174683a206164646974696f6e206f766572666c6f77000000000081525060200191505060405180910390fd5b8091505092915050565b60006111b783836040518060400160405280601e81526020017f536166654d6174683a207375627472616374696f6e206f766572666c6f7700008152506115bf565b905092915050565b505050565b600033905090565b600073ffffffffffffffffffffffffffffffffffffffff168373ffffffffffffffffffffffffffffffffffffffff161415611252576040517f08c379a0000000000000000000000000000000000000000000000000000000008152600401808060200182810382526024815260200180611e7f6024913960400191505060405180910390fd5b600073ffffffffffffffffffffffffffffffffffffffff168273ffffffffffffffffffffffffffffffffffffffff1614156112d8576040517f08c379a0000000000000000000000000000000000000000000000000000000008152600401808060200182810382526022815260200180611da86022913960400191505060405180910390fd5b80600160008573ffffffffffffffffffffffffffffffffffffffff1673ffffffffffffffffffffffffffffffffffffffff16815260200190815260200160002060008473ffffffffffffffffffffffffffffffffffffffff1673ffffffffffffffffffffffffffffffffffffffff168152602001908152602001600020819055508173ffffffffffffffffffffffffffffffffffffffff168373ffffffffffffffffffffffffffffffffffffffff167f8c5be1e5ebec7d5bd14f71427d1e84f3dd0314c0f7b2291e5b200ac8c7c3b925836040518082815260200191505060405180910390a3505050565b60006113ce846106cd565b905060006113db846106cd565b9050600061142883600660008973ffffffffffffffffffffffffffffffffffffffff1673ffffffffffffffffffffffffffffffffffffffff16815260200190815260200160002054610715565b9050600080600660008973ffffffffffffffffffffffffffffffffffffffff1673ffffffffffffffffffffffffffffffffffffffff1681526020019081526020016000205414158061147b575060008314155b156114cc576114c983600660008a73ffffffffffffffffffffffffffffffffffffffff1673ffffffffffffffffffffffffffffffffffffffff16815260200190815260200160002054610715565b90505b43600660008973ffffffffffffffffffffffffffffffffffffffff1673ffffffffffffffffffffffffffffffffffffffff1681526020019081526020016000208190555043600660008873ffffffffffffffffffffffffffffffffffffffff1673ffffffffffffffffffffffffffffffffffffffff1681526020019081526020016000208190555061155e8783610809565b8573ffffffffffffffffffffffffffffffffffffffff168773ffffffffffffffffffffffffffffffffffffffff161415801561159b575060008114155b156115ab576115aa8682610809565b5b6115b6878787611aa1565b50505050505050565b600083831115829061166c576040517f08c379a00000000000000000000000000000000000000000000000000000000081526004018080602001828103825283818151815260200191508051906020019080838360005b83811015611631578082015181840152602081019050611616565b50505050905090810190601f16801561165e5780820380516001836020036101000a031916815260200191505b509250505060405180910390fd5b5060008385039050809150509392505050565b6000600960009054906101000a900473ffffffffffffffffffffffffffffffffffffffff1673ffffffffffffffffffffffffffffffffffffffff1663b04ef9c2306040518263ffffffff1660e01b8152600401808273ffffffffffffffffffffffffffffffffffffffff16815260200191505060206040518083038186803b15801561170a57600080fd5b505afa15801561171e573d6000803e3d6000fd5b505050506040513d602081101561173457600080fd5b81019080805190602001909291905050509050600960009054906101000a900473ffffffffffffffffffffffffffffffffffffffff1673ffffffffffffffffffffffffffffffffffffffff16632e1a7d4d826040518263ffffffff1660e01b815260040180828152602001915050600060405180830381600087803b1580156117bc57600080fd5b505af11580156117d0573d6000803e3d6000fd5b50505050670de0b6b3a76400006117f0834761117590919063ffffffff16565b10156117f857fe5b61181361180e834761117590919063ffffffff16565b6109d0565b5050565b600073ffffffffffffffffffffffffffffffffffffffff168273ffffffffffffffffffffffffffffffffffffffff16141561189d576040517f08c379a0000000000000000000000000000000000000000000000000000000008152600401808060200182810382526021815260200180611e396021913960400191505060405180910390fd5b6118a9826000836111bf565b61191481604051806060016040528060228152602001611d86602291396000808673ffffffffffffffffffffffffffffffffffffffff1673ffffffffffffffffffffffffffffffffffffffff168152602001908152602001600020546115bf9092919063ffffffff16565b6000808473ffffffffffffffffffffffffffffffffffffffff1673ffffffffffffffffffffffffffffffffffffffff1681526020019081526020016000208190555061196b8160025461117590919063ffffffff16565b600281905550600073ffffffffffffffffffffffffffffffffffffffff168273ffffffffffffffffffffffffffffffffffffffff167fddf252ad1be2c89b69c2b068fc378daa952ba7f163c4a11628f55a4df523b3ef836040518082815260200191505060405180910390a35050565b60008083118290611a87576040517f08c379a00000000000000000000000000000000000000000000000000000000081526004018080602001828103825283818151815260200191508051906020019080838360005b83811015611a4c578082015181840152602081019050611a31565b50505050905090810190601f168015611a795780820380516001836020036101000a031916815260200191505b509250505060405180910390fd5b506000838581611a9357fe5b049050809150509392505050565b600073ffffffffffffffffffffffffffffffffffffffff168373ffffffffffffffffffffffffffffffffffffffff161415611b27576040517f08c379a0000000000000000000000000000000000000000000000000000000008152600401808060200182810382526025815260200180611e5a6025913960400191505060405180910390fd5b600073ffffffffffffffffffffffffffffffffffffffff168273ffffffffffffffffffffffffffffffffffffffff161415611bad576040517f08c379a0000000000000000000000000000000000000000000000000000000008152600401808060200182810382526023815260200180611d636023913960400191505060405180910390fd5b611bb88383836111bf565b611c2381604051806060016040528060268152602001611dca602691396000808773ffffffffffffffffffffffffffffffffffffffff1673ffffffffffffffffffffffffffffffffffffffff168152602001908152602001600020546115bf9092919063ffffffff16565b6000808573ffffffffffffffffffffffffffffffffffffffff1673ffffffffffffffffffffffffffffffffffffffff16815260200190815260200160002081905550611cb6816000808573ffffffffffffffffffffffffffffffffffffffff1673ffffffffffffffffffffffffffffffffffffffff168152602001908152602001600020546110ed90919063ffffffff16565b6000808473ffffffffffffffffffffffffffffffffffffffff1673ffffffffffffffffffffffffffffffffffffffff168152602001908152602001600020819055508173ffffffffffffffffffffffffffffffffffffffff168373ffffffffffffffffffffffffffffffffffffffff167fddf252ad1be2c89b69c2b068fc378daa952ba7f163c4a11628f55a4df523b3ef836040518082815260200191505060405180910390a350505056fe45524332303a207472616e7366657220746f20746865207a65726f206164647265737345524332303a206275726e20616d6f756e7420657863656564732062616c616e636545524332303a20617070726f766520746f20746865207a65726f206164647265737345524332303a207472616e7366657220616d6f756e7420657863656564732062616c616e6365536166654d6174683a206d756c7469706c69636174696f6e206f766572666c6f7745524332303a207472616e7366657220616d6f756e74206578636565647320616c6c6f77616e636545524332303a206275726e2066726f6d20746865207a65726f206164647265737345524332303a207472616e736665722066726f6d20746865207a65726f206164647265737345524332303a20617070726f76652066726f6d20746865207a65726f206164647265737345524332303a2064656372656173656420616c6c6f77616e63652062656c6f77207a65726fa2646970667358221220c1da33c21dafed33c8351c6a029208ad64bd80a6877a5fc3149d71f1ae1a526164736f6c634300060c0033536166654d6174683a206d756c7469706c69636174696f6e206f766572666c6f77",
  "immutableReferences": {},
  "source": "// SPDX-License-Identifier: MIT\n\npragma solidity ^0.6.0;\n\n// import \"https://github.com/OpenZeppelin/openzeppelin-contracts/blob/master/contracts/token/ERC20/ERC20.sol\";\nimport \"@openzeppelin/contracts/token/ERC20/ERC20.sol\";\nimport \"./Staking.sol\";\n\ncontract StakedCFX is ERC20 {\n    mapping (address => uint256) private _lastBlockCalc;\n    uint256 private baseRate = 4; //4 percent (staking yield)\n    uint256 private _percentage = baseRate.mul(1e16).div(63072000).add(1e18); //1e16 maintains 0.04/63072000, scaled by 1e18\n\n    Staking internal s = Staking(0x0888000000000000000000000000000000000002);\n\n    constructor() public payable ERC20(\"Staked CFX\", \"sCFX\") {\n      require(msg.value == 1e18, \"must deploy with 1 CFX\"); //deploy with 1 CFX to ensure tokens always can be restaked\n    }\n\n    function _transfer(address sender, address recipient, uint256 amount) internal override {\n        // get balances of sender + recipient\n        uint256 balanceSender = balanceOf(sender);\n        uint256 balanceRecipient = balanceOf(recipient);\n\n        // calculate interest for sender + recipient\n        uint interestSender = _calculateInterest(balanceSender, _lastBlockCalc[sender]);\n        uint interestRecipient = 0; //interest = 0 (special case when recipient has never had tokens or currently has none)\n        if (_lastBlockCalc[sender] != 0 || balanceRecipient != 0) {\n            interestRecipient= _calculateInterest(balanceRecipient, _lastBlockCalc[sender]); //otherwise calculate\n        }\n\n        // update last block that calculation was run + interested was distributed\n        _lastBlockCalc[sender] = block.number;\n        _lastBlockCalc[recipient] = block.number;\n\n        // mint interest tokens\n        _mint(sender, interestSender);\n        if (sender != recipient && interestRecipient != 0) { //handle special case of sender = recipient (no duplicate interest), ignore if interestRecipient = 0 (save gas)\n            _mint(recipient, interestRecipient);\n        }\n\n        // transfer amounts\n        super._transfer(sender, recipient, amount);\n    }\n\n    function _calculateInterest(uint256 _balance, uint256 _blockNumber) internal view returns (uint256 interest) {\n        uint256 _percentageCalc = 1e18; //starting with 1\n        if (block.number.sub(_blockNumber) > 0) { //exponential through a for loop (need more efficient mechanism)\n            for (uint i = 0; i < block.number.sub(_blockNumber); i++) { //number of loops = difference in block\n                _percentageCalc = _percentageCalc.mul(_percentage).div(1e18); //divide by 1e18 to maintain 1e18 scaling\n            }\n            return _balance.mul(_percentageCalc).div(1e18).sub(_balance); //calculate new balance, remove scaling, subtract base amount to return interest amount\n        } else {\n            assert(block.number.sub(_blockNumber) == 0);\n            return 0; //return balance if block.number.sub(_blockNumber) = 0\n        }\n\n    }\n\n    function _stake(uint256 amt) internal {\n      s.deposit(amt);\n    }\n\n    function _unstake(uint256 amt) internal {\n      // withdraw all tokens\n      uint256 balance = s.getStakingBalance(address(this));\n      s.withdraw(balance);\n\n      // restake all tokens minus the amount to be returned\n      assert(address(this).balance.sub(amt) >= 1e18); // balance will always be >= 1 CFX\n      _stake(address(this).balance.sub(amt));\n    }\n\n    function withdraw() external {\n        uint256 balance = balanceOf(msg.sender); // get balances of sender + recipient\n\n        uint interest = _calculateInterest(balance, _lastBlockCalc[msg.sender]); // calculate interest for sender + recipient\n\n        _lastBlockCalc[msg.sender] = block.number; // update last block that calculation was run + interested was distributed\n\n        _mint(msg.sender, interest); //distribute interest\n\n        _unstake(balance.add(interest)); //unstake CFX\n\n        _burn(msg.sender, balance.add(interest)); //burn tokens\n\n        address(this).transfer(balance.add(interest)); // send tokens\n    }\n\n    receive() external payable {\n        require(msg.value >= 1e18, \"minimum deposit = 1 CFX\");\n\n        // mint interest if there is a non-zero balance\n        if (balanceOf(msg.sender) > 0) {\n          uint256 interest = _calculateInterest(balanceOf(msg.sender), _lastBlockCalc[msg.sender]);\n          _mint(msg.sender, interest);\n        }\n\n        _lastBlockCalc[msg.sender] = block.number; //set the latest block number\n        _stake(address(this).balance); //stake all deposited tokens\n        _mint(msg.sender, msg.value); //mint equivalent tokens\n    }\n}\n",
  "sourcePath": "/home/aalu1418/Documents/tokenized-stake/contracts/StakedCFX.sol",
  "compiler": {
    "name": "solc",
    "version": "0.6.12+commit.27d51765.Emscripten.clang"
  },
  "schemaVersion": "3.2.0",
  "updatedAt": "2020-11-23T03:56:58.230Z",
  "networkType": "conflux",
  "devdoc": {
    "kind": "dev",
    "methods": {
      "allowance(address,address)": {
        "details": "See {IERC20-allowance}."
      },
      "approve(address,uint256)": {
        "details": "See {IERC20-approve}. Requirements: - `spender` cannot be the zero address."
      },
      "balanceOf(address)": {
        "details": "See {IERC20-balanceOf}."
      },
      "decimals()": {
        "details": "Returns the number of decimals used to get its user representation. For example, if `decimals` equals `2`, a balance of `505` tokens should be displayed to a user as `5,05` (`505 / 10 ** 2`). Tokens usually opt for a value of 18, imitating the relationship between Ether and Wei. This is the value {ERC20} uses, unless {_setupDecimals} is called. NOTE: This information is only used for _display_ purposes: it in no way affects any of the arithmetic of the contract, including {IERC20-balanceOf} and {IERC20-transfer}."
      },
      "decreaseAllowance(address,uint256)": {
        "details": "Atomically decreases the allowance granted to `spender` by the caller. This is an alternative to {approve} that can be used as a mitigation for problems described in {IERC20-approve}. Emits an {Approval} event indicating the updated allowance. Requirements: - `spender` cannot be the zero address. - `spender` must have allowance for the caller of at least `subtractedValue`."
      },
      "increaseAllowance(address,uint256)": {
        "details": "Atomically increases the allowance granted to `spender` by the caller. This is an alternative to {approve} that can be used as a mitigation for problems described in {IERC20-approve}. Emits an {Approval} event indicating the updated allowance. Requirements: - `spender` cannot be the zero address."
      },
      "name()": {
        "details": "Returns the name of the token."
      },
      "symbol()": {
        "details": "Returns the symbol of the token, usually a shorter version of the name."
      },
      "totalSupply()": {
        "details": "See {IERC20-totalSupply}."
      },
      "transfer(address,uint256)": {
        "details": "See {IERC20-transfer}. Requirements: - `recipient` cannot be the zero address. - the caller must have a balance of at least `amount`."
      },
      "transferFrom(address,address,uint256)": {
        "details": "See {IERC20-transferFrom}. Emits an {Approval} event indicating the updated allowance. This is not required by the EIP. See the note at the beginning of {ERC20}; Requirements: - `sender` and `recipient` cannot be the zero address. - `sender` must have a balance of at least `amount`. - the caller must have allowance for ``sender``'s tokens of at least `amount`."
      }
    },
    "version": 1
  },
  "userdoc": {
    "kind": "user",
    "methods": {},
    "version": 1
  }
}