{
  "contractName": "Staking",
  "abi": [
    {
      "inputs": [
        {
          "internalType": "address",
          "name": "user",
          "type": "address"
        }
      ],
      "name": "getStakingBalance",
      "outputs": [
        {
          "internalType": "uint256",
          "name": "",
          "type": "uint256"
        }
      ],
      "stateMutability": "view",
      "type": "function"
    },
    {
      "inputs": [
        {
          "internalType": "address",
          "name": "user",
          "type": "address"
        },
        {
          "internalType": "uint256",
          "name": "blockNumber",
          "type": "uint256"
        }
      ],
      "name": "getLockedStakingBalance",
      "outputs": [
        {
          "internalType": "uint256",
          "name": "",
          "type": "uint256"
        }
      ],
      "stateMutability": "view",
      "type": "function"
    },
    {
      "inputs": [
        {
          "internalType": "address",
          "name": "user",
          "type": "address"
        },
        {
          "internalType": "uint256",
          "name": "blockNumber",
          "type": "uint256"
        }
      ],
      "name": "getVotePower",
      "outputs": [
        {
          "internalType": "uint256",
          "name": "",
          "type": "uint256"
        }
      ],
      "stateMutability": "view",
      "type": "function"
    },
    {
      "inputs": [
        {
          "internalType": "uint256",
          "name": "amount",
          "type": "uint256"
        }
      ],
      "name": "deposit",
      "outputs": [],
      "stateMutability": "nonpayable",
      "type": "function"
    },
    {
      "inputs": [
        {
          "internalType": "uint256",
          "name": "amount",
          "type": "uint256"
        }
      ],
      "name": "withdraw",
      "outputs": [],
      "stateMutability": "nonpayable",
      "type": "function"
    },
    {
      "inputs": [
        {
          "internalType": "uint256",
          "name": "amount",
          "type": "uint256"
        },
        {
          "internalType": "uint256",
          "name": "unlockBlockNumber",
          "type": "uint256"
        }
      ],
      "name": "voteLock",
      "outputs": [],
      "stateMutability": "nonpayable",
      "type": "function"
    }
  ],
  "bytecode": "0x608060405234801561001057600080fd5b5061026e806100206000396000f3fe608060405234801561001057600080fd5b50600436106100625760003560e01c80632e1a7d4d1461006757806344a51d6d14610095578063b04ef9c2146100cd578063b3657ee714610125578063b6b55f2514610187578063c90abac8146101b5575b600080fd5b6100936004803603602081101561007d57600080fd5b8101908080359060200190929190505050610217565b005b6100cb600480360360408110156100ab57600080fd5b81019080803590602001909291908035906020019092919050505061021a565b005b61010f600480360360208110156100e357600080fd5b81019080803573ffffffffffffffffffffffffffffffffffffffff16906020019092919050505061021e565b6040518082815260200191505060405180910390f35b6101716004803603604081101561013b57600080fd5b81019080803573ffffffffffffffffffffffffffffffffffffffff16906020019092919080359060200190929190505050610225565b6040518082815260200191505060405180910390f35b6101b36004803603602081101561019d57600080fd5b810190808035906020019092919050505061022d565b005b610201600480360360408110156101cb57600080fd5b81019080803573ffffffffffffffffffffffffffffffffffffffff16906020019092919080359060200190929190505050610230565b6040518082815260200191505060405180910390f35b50565b5050565b6000919050565b600092915050565b50565b60009291505056fea264697066735822122018e70c42051900e071565f0d0e1381a7ec8e6a76be97872b39794591066c0d9f64736f6c634300060c0033",
  "immutableReferences": {},
  "source": "pragma solidity >=0.4.15;\n\n// https://github.com/Conflux-Chain/conflux-rust/blob/master/internal_contract/contracts/Staking.sol\n\ncontract Staking {\n    /*** Query Functions ***/\n    /**\n     * @dev get user's staking balance\n     * @param user The address of specific user\n     */\n    function getStakingBalance(address user) public view returns (uint) {}\n\n    /**\n     * @dev get user's locked staking balance at given blockNumber\n     * @param user The address of specific user\n     * @param blockNumber The blockNumber as index.\n     */\n    // ------------------------------------------------------------------------\n    // Note: if the blockNumber is less than the current block number, function\n    // will return current locked staking balance.\n    // ------------------------------------------------------------------------\n    function getLockedStakingBalance(address user, uint blockNumber) public view returns (uint) {}\n\n\n    /**\n     * @dev get user's vote power staking balance at given blockNumber\n     * @param user The address of specific user\n     * @param blockNumber The blockNumber as index.\n     */\n    // ------------------------------------------------------------------------\n    // Note: if the blockNumber is less than the current block number, function\n    // will return current vote power.\n    // ------------------------------------------------------------------------\n    function getVotePower(address user, uint blockNumber) public view returns (uint) {}\n\n    function deposit(uint amount) external {}\n\n    function withdraw(uint amount) external {}\n\n    function voteLock(uint amount, uint unlockBlockNumber) external {}\n}\n",
  "sourcePath": "/home/aalu1418/Documents/tokenized-stake/contracts/Staking.sol",
  "compiler": {
    "name": "solc",
    "version": "0.6.12+commit.27d51765.Emscripten.clang"
  },
  "schemaVersion": "3.2.0",
  "updatedAt": "2020-11-23T00:59:09.736Z",
  "devdoc": {
    "kind": "dev",
    "methods": {
      "getLockedStakingBalance(address,uint256)": {
        "details": "get user's locked staking balance at given blockNumber",
        "params": {
          "blockNumber": "The blockNumber as index.",
          "user": "The address of specific user"
        }
      },
      "getStakingBalance(address)": {
        "details": "get user's staking balance",
        "params": {
          "user": "The address of specific user"
        }
      },
      "getVotePower(address,uint256)": {
        "details": "get user's vote power staking balance at given blockNumber",
        "params": {
          "blockNumber": "The blockNumber as index.",
          "user": "The address of specific user"
        }
      }
    },
    "version": 1
  },
  "userdoc": {
    "kind": "user",
    "methods": {},
    "version": 1
  }
}